{
  "contractName": "MySVMContract",
  "abi": [
    {
      "inputs": [
        {
          "internalType": "string",
          "name": "_message",
          "type": "string"
        }
      ],
      "stateMutability": "nonpayable",
      "type": "constructor"
    },
    {
      "inputs": [],
      "name": "message",
      "outputs": [
        {
          "internalType": "string",
          "name": "",
          "type": "string"
        }
      ],
      "stateMutability": "view",
      "type": "function"
    }
  ],
  "bytecode": "0x608060405234801561000f575f80fd5b506040516107ab3803806107ab833981810160405281019061003191906101f0565b5f815111610074576040517f08c379a000000000000000000000000000000000000000000000000000000000815260040161006b90610291565b60405180910390fd5b805f908161008291906104bc565b505061058b565b5f604051905090565b5f80fd5b5f80fd5b5f80fd5b5f80fd5b5f601f19601f8301169050919050565b7f4e487b71000000000000000000000000000000000000000000000000000000005f52604160045260245ffd5b6100e8826100a2565b810181811067ffffffffffffffff82111715610107576101066100b2565b5b80604052505050565b5f610119610089565b905061012582826100df565b919050565b5f67ffffffffffffffff821115610144576101436100b2565b5b61014d826100a2565b9050602081019050919050565b5f5b8381101561017757808201518184015260208101905061015c565b5f8484015250505050565b5f61019461018f8461012a565b610110565b9050828152602081018484840111156101b0576101af61009e565b5b6101bb84828561015a565b509392505050565b5f82601f8301126101d7576101d661009a565b5b81516101e7848260208601610182565b91505092915050565b5f6020828403121561020557610204610092565b5b5f82015167ffffffffffffffff81111561022257610221610096565b5b61022e848285016101c3565b91505092915050565b5f82825260208201905092915050565b7f4d6573736167652063616e6e6f7420626520656d7074790000000000000000005f82015250565b5f61027b601783610237565b915061028682610247565b602082019050919050565b5f6020820190508181035f8301526102a88161026f565b9050919050565b5f81519050919050565b7f4e487b71000000000000000000000000000000000000000000000000000000005f52602260045260245ffd5b5f60028204905060018216806102fd57607f821691505b6020821081036103105761030f6102b9565b5b50919050565b5f819050815f5260205f209050919050565b5f6020601f8301049050919050565b5f82821b905092915050565b5f600883026103727fffffffffffffffffffffffffffffffffffffffffffffffffffffffffffffffff82610337565b61037c8683610337565b95508019841693508086168417925050509392505050565b5f819050919050565b5f819050919050565b5f6103c06103bb6103b684610394565b61039d565b610394565b9050919050565b5f819050919050565b6103d9836103a6565b6103ed6103e5826103c7565b848454610343565b825550505050565b5f90565b6104016103f5565b61040c8184846103d0565b505050565b5b8181101561042f576104245f826103f9565b600181019050610412565b5050565b601f8211156104745761044581610316565b61044e84610328565b8101602085101561045d578190505b61047161046985610328565b830182610411565b50505b505050565b5f82821c905092915050565b5f6104945f1984600802610479565b1980831691505092915050565b5f6104ac8383610485565b9150826002028217905092915050565b6104c5826102af565b67ffffffffffffffff8111156104de576104dd6100b2565b5b6104e882546102e6565b6104f3828285610433565b5f60209050601f831160018114610524575f8415610512578287015190505b61051c85826104a1565b865550610583565b601f19841661053286610316565b5f5b8281101561055957848901518255600182019150602085019450602081019050610534565b868310156105765784890151610572601f891682610485565b8355505b6001600288020188555050505b505050505050565b610213806105985f395ff3fe608060405234801561000f575f80fd5b5060043610610029575f3560e01c8063e21f37ce1461002d575b5f80fd5b61003561004b565b6040516100429190610160565b60405180910390f35b5f8054610057906101ad565b80601f0160208091040260200160405190810160405280929190818152602001828054610083906101ad565b80156100ce5780601f106100a5576101008083540402835291602001916100ce565b820191905f5260205f20905b8154815290600101906020018083116100b157829003601f168201915b505050505081565b5f81519050919050565b5f82825260208201905092915050565b5f5b8381101561010d5780820151818401526020810190506100f2565b5f8484015250505050565b5f601f19601f8301169050919050565b5f610132826100d6565b61013c81856100e0565b935061014c8185602086016100f0565b61015581610118565b840191505092915050565b5f6020820190508181035f8301526101788184610128565b905092915050565b7f4e487b71000000000000000000000000000000000000000000000000000000005f52602260045260245ffd5b5f60028204905060018216806101c457607f821691505b6020821081036101d7576101d6610180565b5b5091905056fea2646970667358221220f26a956fc56a168d1c36c71f2bed0fad2e7d681c277efb15f6394cab2e17f93c64736f6c63430008150033",
  "immutableReferences": {},
  "source": "// SPDX-License-Identifier: MIT\r\npragma solidity ^0.8.0;\r\n\r\ncontract MySVMContract {\r\n    string public message;\r\n\r\n    constructor(string memory _message) {\r\n        require(bytes(_message).length > 0, \"Message cannot be empty\");\r\n        message = _message;\r\n    }\r\n}\r\n\r\n",
  "sourcePath": "C:\\Users\\seanr\\my_svm_contract\\contracts\\MySVMContract.sol",
  "compiler": {
    "name": "solc",
    "version": "0.8.21+commit.d9974bed.Emscripten.clang"
  },
  "schemaVersion": "3.4.16",
  "updatedAt": "2024-10-04T13:06:53.777Z",
  "devdoc": {
    "kind": "dev",
    "methods": {},
    "version": 1
  },
  "userdoc": {
    "kind": "user",
    "methods": {},
    "version": 1
  }
}